:100000000C942A000C9434000C9434000C943400AA
:100010000C9434000C9434000C9434000C94340090
:100020000C9434000C9434000C9434000C94340080
:100030000C9434000C9434000C9434000C94340070
:100040000C9434000C9434000C9434000C94340060
:100050000C94340011241FBECFE5D8E0DEBFCDBF25
:100060000E945D000C948F000C9400008FEF90E0D4
:100070009BBB8ABB18BA17BA99BB88BB08952BB330
:100080003CB341E050E002C0440F551F8A95E2F7AF
:10009000242B352B3CBB2BBB08954BB35CB321E029
:1000A00030E002C0220F331F8A95E2F72095309589
:1000B000242335233CBB2BBB08950E9436001CBA79
:1000C0001BBAC0E0D0E000E010E002C0C0E0D0E029
:1000D00086B397B380FD0BC0209749F4C8010E94F6
:1000E0003F000830110514F40F5F1F4F219686B3AF
:1000F00097B381FD0BC0209749F4C8010E944D00C1
:100100001016110614F401501109219686B397B305
:1001100080FFDECF86B397B381FDD8CFD9CFF894D7
:02012000FFCF0F
:00000001FF
