:020000040800F2
:1000000000280020B10100080102000801020008D8
:1000100001020008010200080102000800000000BF
:1000200000000000000000000000000001020008C5
:10003000010200080000000001020008010200089F
:100040000102000801020008010200080102000884
:100050000102000801020008010200080102000874
:100060000102000801020008010200080102000864
:100070000102000801020008010200080102000854
:100080000102000801020008010200080102000844
:100090000102000801020008010200080102000834
:1000A0000102000801020008010200080102000824
:1000B0000102000801020008010200080102000814
:1000C0000102000801020008010200080102000804
:1000D00001020008010200080102000801020008F4
:1000E00001020008010200080000000001020008EF
:1000F00001020008010200080102000801020008D4
:1001000001020008010200080102000801020008C3
:1001100001020008010200080102000801020008B3
:1001200001020008010200080102000801020008A3
:1001300010B5054C237833B9044B13B10448AFF321
:1001400000800123237010BD040000200000000087
:100150004C02000808B5034B1BB103490348AFF339
:10016000008008BD00000000080000204C020008CC
:100170000C490D4B0A680D4842F004020A601A68E7
:1001800022F470021A601A6842F400121A600368BE
:100190001A8842F400521A801A886FF34D321A807E
:1001A000F6E700BF181002400408014000000020DC
:1001B0000D488546AFF300800C480D490D4A0023D9
:1001C00002E0D458C4500433C4188C42F9D30A4A0C
:1001D0000A4C002301E013600432A242FBD300F07A
:1001E00011F8FFF7C5FFFEE70028002000000020FF
:1001F000040000206C020008040000202000002001
:10020000FEE7000070B500250C4E0D4CA41BA41099
:10021000A54209D100F01AF800250A4E0A4CA41B89
:10022000A410A54205D170BD56F825309847013578
:10023000EEE756F8253098470135F2E764020008EA
:10024000640200086402000868020008F8B500BFF4
:10025000F8BC08BC9E467047F8B500BFF8BC08BCA7
:040260009E467047FF
:040264005501000838
:040268003101000858
:04026C000C08014039
:04000005080001B13D
:00000001FF
