S012000063616C63756C61746F722E73726563E8
S11300000C946B000C9488000C9488000C94880069
S11300100C9488000C9488000C9488000C9488003C
S11300200C9488000C9488000C9488000C9488002C
S11300300C9488000C9488000C9488000C9488001C
S11300400C9488000C9488000C9488000C9488000C
S11300500C94880008000000BE922449123EABAA0A
S1130060AA2ABECDCCCC4C3E00000080BEABAAAACE
S1130070AA3E00000000BF000000803F0000000016
S113008000084178D3BB4387D1133D190E3CC3BD4F
S11300904282AD2B3E68EC8276BED98FE1A93E4CFC
S11300A080EFFFBE01C4FF7F3F0000000000076334
S11300B04236B79BD8A71A39685618AEBAAB558CD6
S11300C01D3CB7CC5763BD6DEDFD753EF61772311F
S11300D0BF000000803F11241FBECFE5D8E0DEBF83
S11300E0CDBF10E0A0E6B0E0E2E9F2E102C0059085
S11300F00D92A637B107D9F720E0A6E7B0E001C01A
S11301001D92A438B207E1F70E941B050C9447091D
S11301100C940000843008F072C0683008F06FC09E
S1130120423008F06CC0813001F130F08230B1F11E
S1130130833009F44CC0089541110CC02AB381E006
S113014090E002C0880F991F6A95E2F78095822398
S11301508ABB08952AB381E090E002C0880F991FFA
S11301606A95E2F7822B8ABB089541110CC027B32C
S113017081E090E002C0880F991F6A95E2F78095AC
S1130180822387BB089527B381E090E002C0880FE3
S1130190991F6A95E2F7822B87BB089541110CC021
S11301A024B381E090E002C0880F991F6A95E2F7BA
S11301B08095822384BB089524B381E090E002C03B
S11301C0880F991F6A95E2F7822B84BB0895411129
S11301D00CC021B381E090E002C0880F991F6A959A
S11301E0E2F78095822381BB089521B381E090E0FA
S11301F002C0880F991F6A95E2F7822B81BB08958C
S1130200843008F072C0683008F06FC0423008F0E3
S11302106CC0813001F130F08230B1F1833009F4E7
S11302204CC00895413059F42BB381E090E002C0F2
S1130230880F991F6A95E2F7822B8BBB08952BB325
S113024081E090E002C0880F991F6A95E2F78095DB
S113025082238BBB0895413059F428B381E090E0A8
S113026002C0880F991F6A95E2F7822B88BB089514
S113027028B381E090E002C0880F991F6A95E2F7E5
S11302808095822388BB0895413059F425B381E0D9
S113029090E002C0880F991F6A95E2F7822B85BB14
S11302A0089525B381E090E002C0880F991F6A95F4
S11302B0E2F78095822385BB0895413059F422B337
S11302C081E090E002C0880F991F6A95E2F7822BC3
S11302D082BB089522B381E090E002C0880F991F89
S11302E06A95E2F78095822382BB0895843008F0F2
S11302F04EC0683008F04BC04115510509F447C0A1
S11303008130B1F028F0823019F1833089F10895F9
S113031089B390E002C0959587956A95E2F780FFCE
S113032004C081E0FA0180830895FA0110820895DF
S113033086B390E002C0959587956A95E2F780FFB1
S113034004C081E0FA0180830895FA0110820895BF
S113035083B390E002C0959587956A95E2F780FF94
S113036004C081E0FA0180830895FA01108208959F
S113037080B390E002C0959587956A95E2F780FF77
S113038004C081E0FA0180830895FA01108208957F
S11303908430A8F5683098F5813089F028F08230EF
S11303A0C9F0833011F108952BB381E090E002C0CD
S11303B0880F991F6A95E2F7822B8BBB089528B3A7
S11303C081E090E002C0880F991F6A95E2F7822BC2
S11303D088BB089525B381E090E002C0880F991F7F
S11303E06A95E2F7822B85BB089522B381E090E001
S11303F002C0880F991F6A95E2F7822B82BB089589
S11304006F927F928F929F92AF92BF92CF92DF9220
S1130410EF92FF920F931F93CF93DF93CDB7DEB785
S1130420A1970FB6F894DEBF0FBECDBF6C01198241
S113043081E08A8392E09B8383E08C839D839E8307
S11304409F83988784E0898785E08A8786E08B8705
S113045087E08C879D879E879F87988B90E1E0E655
S1130460F0E0DE01519601900D929A95E1F7C114E6
S1130470D10409F45FC08FEFF6018083812C56C04C
S1130480E82CF12CE1E0F0E0EC0FFD1FEE0DFF1D78
S11304906080E5E0F0E0EC0FFD1FEE0DFF1D7080C5
S11304A040E0662D872D0E94000110E037C0A12E88
S11304B0B12CE9E0F0E0EC0FFD1FEA0DFB1D00811B
S11304C0EDE0F0E0EC0FFD1FEA0DFB1D9080AE01A6
S11304D04F5D5F4F602F892D0E94760189A18111A4
S11304E01CC0EE0CFF1CEE0CFF1C81E090E08C0F96
S11304F09D1FE80EF91EF701EA0DFB1D8089F60128
S1130500808307C0AE014F5D5F4F602F892D0E942D
S1130510760189A18823B1F30DC01F5F143038F22E
S113052041E0662D872D0E9400018394F3E0F815C5
S113053008F0A6CFA1960FB6F894DEBF0FBECDBFCC
S1130540DF91CF911F910F91FF90EF90DF90CF90AB
S1130550BF90AF909F908F907F906F90089541E0EF
S113056060E082E00E948A0041E061E082E00E9453
S11305708A0041E062E082E00E948A0041E063E098
S113058082E00E948A0040E064E082E00E948A00E7
S113059040E065E082E00E948A0040E066E082E09C
S11305A00E948A0040E067E082E00E948A0064E0E2
S11305B082E00E94C80165E082E00E94C80166E012
S11305C082E00E94C80167E082E00E94C8010895A9
S11305D0CF93C82F80FF06C041E064E080E00E9412
S11305E0000105C040E064E080E00E940001C1FF1A
S11305F006C041E065E080E00E94000105C040E0E3
S113060065E080E00E940001C2FF06C041E066E0B0
S113061080E00E94000105C040E066E080E00E94A6
S11306200001C3FF06C041E067E080E00E940001D2
S113063005C040E067E080E00E940001CF9108958A
S1130640CF93C82F40E061E081E00E94000140E0C8
S113065062E081E00E9400018C2F82958F700E94DD
S1130660E80241E063E081E00E9400018FE99FE03D
S11306700197F1F700C0000040E063E081E00E94D0
S113068000018C2F0E94E80241E063E081E00E94B7
S113069000018FE99FE00197F1F700C0000040E0FE
S11306A063E081E00E940001CF910895CF93C82FA9
S11306B041E061E081E00E94000140E062E081E00D
S11306C00E9400018C2F82958F700E94E80241E005
S11306D063E081E00E9400018FE99FE00197F1F758
S11306E000C0000040E063E081E00E9400018C2F24
S11306F00E94E80241E063E081E00E9400018FE98A
S11307009FE00197F1F700C0000040E063E081E062
S11307100E940001CF9108952FE785EB91E02150CD
S113072080409040E1F700C0000040E061E081E0DB
S11307300E94000140E062E081E00E94000182E04A
S11307400E94E80241E063E081E00E9400018FE939
S11307509FE00197F1F700C0000040E063E081E012
S11307600E94000188E20E9420039FE722E382E0C6
S1130770915020408040E1F700C000008FE00E94CB
S113078020039FE722E382E0915020408040E1F77C
S113079000C0000081E00E9420038FE39FE10197E5
S11307A0F1F700C0000086E00E94200308950F9333
S11307B01F93CF93009729F40CC00E945603CF5F78
S11307C002C08C01C0E0F801EC0FF11D80818111A1
S11307D0F4CFCF911F910F91089581E00E942003DF
S11307E08FE39FE10197F1F700C00000089541E015
S11307F064E080E00E948A0041E065E080E00E94BD
S11308008A0041E066E080E00E948A0041E067E0FF
S113081080E00E948A0041E061E081E00E948A0059
S113082041E062E081E00E948A0041E063E081E00F
S11308300E948A000895CF92DF92EF92FF921F9355
S1130840CF93DF93C0E035C0821B930BFC01E758C4
S1130850FF4FD0816C2F70E080E090E00E9425066D
S11308609B01AC0160E070E080E291E40E947807B3
S11308706B017C016D2FDD0F770B880B990B0E94A8
S11308802706A70196010E940B076B017C0160916A
S11308907600062E000C770B880B990B0E94270616
S11308A0A70196010E9483050E94EF0560937600DC
S11308B0CF5F2C2F30E080917800082E000C990B2C
S11308C0281739070CF2809179008B3281F02CF4CF
S11308D0882341F08A32D9F046C08D3281F08F32BC
S11308E001F141C080917600809377003CC09091E3
S11308F0770080917600890F8093770034C08091CF
S1130900770090917600891B809377002CC08091AA
S1130910770090917600899F802D11248093770031
S113092022C060917600662369F080917700082EDA
S1130930000C990B062E000C770B0E941F09609384
S1130940770011C061110FC00E94ED0380E790E0B1
S11309500E94D703109279001092780010927700C9
S11309601092760060C00E94ED038091770081119F
S113097004C080E30E94560348C0882344F48DE2F7
S11309800E9456038091770081958093770060914F
S11309907700062E000C770B880B990B0E94270614
S11309A00E94B3060E94EF05EB01219610E028C0D7
S11309B0BE01681B790B61507109072E000C880B6E
S11309C0990B0E9427069B01AC0160E070E080E275
S11309D091E40E9478070E94EF05AB01BC0180916D
S11309E07700082E000C990BBA010E941F09CB0155
S11309F06AE070E00E941F09805D0E9456031F5F39
S1130A00812F90E08C179D079CF210927600109233
S1130A10780080E006C0E82FF0E0E658FF4F10822F
S1130A208F5F8A30C0F3DF91CF911F91FF90EF90D9
S1130A30DF90CF900895CF93DF931F92CDB7DEB7A9
S1130A400E94F7030E948C030E94AF02CE0101961C
S1130A500E94000289818F3FC9F38D3239F128F455
S1130A608A3291F08B32C9F03CC08D3399F18334D2
S1130A7031F18F32B1F50E941B0489810E94560323
S1130A80898180937900E2CF0E941B0489810E94AE
S1130A905603898180937900D9CF0E941B048981F0
S1130AA00E945603898180937900D0CF0E941B0451
S1130AB089810E945603898180937900C7CF0E945F
S1130AC0ED03109279001092780010927700109242
S1130AD07600BCCF0E941B0410927900109277001C
S1130AE0B5CF90917800E92F092E000CFF0BE65842
S1130AF0FF4F20ED280F20839F5F909378000E9482
S1130B005603A4CF5058BB27AA270E949A050C94D9
S1130B1079060E946B0638F00E94720620F039F4C0
S1130B209F3F19F426F40C9468060EF4E095E7FB55
S1130B300C946206E92F0E948A0658F3BA176207DA
S1130B4073078407950720F079F4A6F50C94AC0696
S1130B500EF4E0950B2EBA2FA02D0B01B9019001D4
S1130B600C01CA01A0011124FF27591B99F0593F18
S1130B7050F4503E68F11A16F040A22F232F342F60
S1130B804427585FF3CF469537952795A795F040AE
S1130B905395C9F77EF41F16BA0B620B730B840BC3
S1130BA0BAF09150A1F0FF0FBB1F661F771F881F7B
S1130BB0C2F70EC0BA0F621F731F841F48F48795D3
S1130BC077956795B795F7959E3F08F0B0CF9395C5
S1130BD0880F08F09927EE0F9795879508950E943E
S1130BE0F6056894B1110C94AD0608950E9492061E
S1130BF088F09F5798F0B92F9927B751B0F0E1F0DA
S1130C00660F771F881F991F1AF0BA95C9F714C089
S1130C10B13091F00E94AC06B1E008950C94AC069A
S1130C20672F782F8827B85F39F0B93FCCF38695C2
S1130C3077956795B395D9F73EF49095809570951F
S1130C4061957F4F8F4F9F4F0895E89409C097FB9C
S1130C503EF490958095709561957F4F8F4F9F4F8F
S1130C609923A9F0F92F96E9BB279395F6958795D3
S1130C7077956795B795F111F8CFFAF4BB0F11F496
S1130C8060FF1BC06F5F7F4F8F4F9F4F16C088233D
S1130C9011F096E911C0772321F09EE8872F762F73
S1130CA005C0662371F096E8862F70E060E02AF0B4
S1130CB09A95660F771F881FDAF7880F96958795A0
S1130CC097F9089597F99F6780E870E060E00895C8
S1130CD09FEF80EC089500240A9416161706180650
S1130CE00906089500240A9412161306140605062C
S1130CF00895092E0394000C11F4882352F0BB0FBD
S1130D0040F4BF2B11F460FF04C06F5F7F4F8F4F1F
S1130D109F4F089557FD9058440F551F59F05F3F5A
S1130D2071F04795880F97FB991F61F09F3F79F009
S1130D3087950895121613061406551FF2CF46958B
S1130D40F1DF08C0161617061806991FF1CF86950D
S1130D507105610508940895E894BB2766277727F1
S1130D60CB0197F908950E94C30629ED3BE54EEDAA
S1130D705EE30C940B0716F00C9402080C946806BE
S1130D8068940C9462060E949206A8F39923C1F316
S1130D90AEF3DF93CF931F930F93FF92C92FDD27F9
S1130DA088232AF02197660F771F881FDAF720E03F
S1130DB030E040E85FEB9FE3883920F0803E38F074
S1130DC021968F770E948305E4E5F0E004C00E9439
S1130DD08305E1E8F0E00E9410088B01BE01EC01FC
S1130DE0FB2E6F5771097595771F880B990B0E941D
S1130DF0270628E132E741E35FE30E941E07AF2D97
S1130E009801AE01FF900F911F91CF91DF910E9445
S1130E109A050C9479060E941E070C9479060E9488
S1130E206B0638F00E94720620F0952311F00C94A2
S1130E3062060C94680611240C94AD060E948A067E
S1130E4070F3959FC1F3950F50E0551F629FF00119
S1130E50729FBB27F00DB11D639FAA27F00DB11D32
S1130E60AA1F649F6627B00DA11D661F829F2227BB
S1130E70B00DA11D621F739FB00DA11D621F839F42
S1130E80A00D611D221F749F3327A00D611D231F18
S1130E90849F600D211D822F762F6A2F11249F5766
S1130EA050409AF0F1F088234AF0EE0FFF1FBB1F69
S1130EB0661F771F881F91505040A9F79E3F510528
S1130EC080F00C9462060C94AD065F3FE4F3983E08
S1130ED0D4F3869577956795B795F795E7959F5FD2
S1130EE0C1F7FE2B880F911D9695879597F9089564
S1130EF0FA01EE0FFF1F309621053105A1F16115AE
S1130F00710561F48038BFE39B0749F16894903818
S1130F10810561F08038BFEF9B0741F099234AF5C2
S1130F20FF3FE1053105210519F1E8940894E7959F
S1130F30D901AA2329F4AB2FBE2FF85FD0F310C038
S1130F40FF5F70F4A695E0F7F73950F019F0FF3A17
S1130F5038F49F779F930DD00F9007FC9058089515
S1130F6046F00C94680660E070E080E89FE3089522
S1130F704FE79F775F934F933F932F930E94C3064E
S1130F802F913F914F915F910E940B070C94D007D2
S1130F9029F416F00C9462060C94AC060C946806C2
S1130FA00E949206A8F39638A0F707F80F92E894E7
S1130FB02BE33AEA48EB5FE70E9421070F920F9276
S1130FC00F924DB75EB70F920E947908EEEAF0E0F7
S1130FD00E9410084F915F91EF91FF91E595EE1FEC
S1130FE0FF1F49F0FE57E0684427EE0F441FFA95AF
S1130FF0E1F74195550B0E9443080F9007FE0C94AE
S1131000370808959F3F31F0915020F487957795E4
S11310106795B795880F911D9695879597F90895CB
S1131020DF93CF931F930F93FF92EF92DF927B0195
S11310308C01689406C0DA2EEF010E941E07FE019F
S1131040E894A5912591359145915591A6F3EF0129
S11310500E949A05FE019701A801DA9469F7DF90CE
S1131060EF90FF900F911F91CF91DF9108959B0115
S1131070AC0160E070E080E89FE30C94AD080C9450
S113108062060C9402080E949206D8F39923C9F3CD
S1131090940F511DA3F39150504094F059F08823BC
S11310A032F0660F771F881F91505040C1F79E3F62
S11310B051052CF7880F911D9695879597F90895FA
S11310C05F3FACF0983E9CF0BB278695779567957B
S11310D0B79508F4B1609395C1F7BB0F58F711F4B5
S11310E060FFE8CF6F5F7F4F8F4F9F4FE3CF0C942C
S11310F0AD06FA01DC01AA0FBB1F9B01AC01BF576F
S113110028F4222733274427507820C0B75190F47D
S1131110AB2F0024469537952795011CA395D2F350
S1131120002071F0220F331F441FB395DAF30ED061
S11311300C94820561307105A0E88A07B94630F441
S11311409B01AC016627772788279078309621F099
S1131150208331834283538308950E94C1080C94F1
S113116079060E94720658F00E946B0640F029F43A
S11311705F3F29F00C94620651110C94AD060C9457
S113118068060E948A0668F39923B1F3552391F304
S1131190951B550BBB27AA2762177307840738F0E2
S11311A09F5F5F4F220F331F441FAA1FA9F335D03F
S11311B00E2E3AF0E0E832D091505040E695001CF3
S11311C0CAF72BD0FE2F29D0660F771F881FBB1FAD
S11311D0261737074807AB07B0E809F0BB0B802D8B
S11311E0BF01FF2793585F4F3AF09E3F510578F0B7
S11311F00C9462060C94AD065F3FE4F3983ED4F37E
S1131200869577956795B795F7959F5FC9F7880F8A
S1131210911D9695879597F90895E1E0660F771FDC
S1131220881FBB1F621773078407BA0720F0621B6D
S1131230730B840BBA0BEE1F88F7E095089597FBA8
S1131240072E16F4009407D077FD09D00E943309C5
S113125007FC05D03EF4909581959F4F08957095B5
S113126061957F4F0895AA1BBB1B51E107C0AA1FBC
S1131270BB1FA617B70710F0A61BB70B881F991F33
S11312805A95A9F780959095BC01CD010895F894DD
S1051290FFCF8A
S11312923738392F3435362A3132332D43303D2B0A
S10912A24572726F720038
S9030000FC
