:100000000C942A000C94B8000C94E7000C94160190
:100010000C9434000C9434000C9434000C94340090
:100020000C9434000C9434000C9434000C94340080
:100030000C9434000C9434000C9434000C94340070
:100040000C9434000C9434000C9434000C94340060
:100050000C94340011241FBECFE5D8E0DEBFCDBF25
:100060000E94A6000C9445010C94000081B392B349
:10007000806292BB81BB81B392B3806492BB81BB2F
:1000800081B392B3806892BB81BB87B398B38B7FF7
:1000900098BB87BB81B392B38B7F92BB81BB81B38B
:1000A00092B3877F92BB81BB08958BB79CB7806466
:1000B0009CBF8BBF85B796B7816096BF85BF8BB756
:1000C0009CB780689CBF8BBF85B796B78C6296BF84
:1000D00085BF8BB79CB780629CBF8BBF84B795B739
:1000E0008F7B95BF84BF0895009731F482B393B39B
:1000F000806293BB82BB08958130910531F482B355
:1001000093B3806493BB82BB0895029729F482B3B2
:1001100093B3806893BB82BB0895009731F482B398
:1001200093B38F7D93BB82BB08958130910531F4E9
:1001300082B393B38F7B93BB82BB0895029729F45C
:1001400082B393B38F7793BB82BB08950E9436002E
:100150000E945500789480E090E00E948D0081E03C
:1001600090E00E948D0082E090E00E948D00F3CF2D
:100170001F920F920FB60F9211242F933F934F931C
:100180005F936F937F938F939F93AF93BF93EF93FF
:10019000FF9380E090E00E9474002FEF89E698E1E1
:1001A000215080409040E1F700C00000FF91EF91A6
:1001B000BF91AF919F918F917F916F915F914F917F
:1001C0003F912F910F900FBE0F901F9018951F9287
:1001D0000F920FB60F9211242F933F934F935F937B
:1001E0006F937F938F939F93AF93BF93EF93FF93FF
:1001F00081E090E00E9474002FEF89E698E12150A1
:1002000080409040E1F700C00000FF91EF91BF9166
:10021000AF919F918F917F916F915F914F913F919E
:100220002F910F900FBE0F901F9018951F920F9255
:100230000FB60F9211242F933F934F935F936F93B9
:100240007F938F939F93AF93BF93EF93FF9382E03E
:1002500090E00E9474002FEF89E698E121508040E1
:100260009040E1F700C00000FF91EF91BF91AF9186
:100270009F918F917F916F915F914F913F912F91BE
:0E0280000F900FBE0F901F901895F894FFCFAF
:00000001FF
