S01900004C6162325F41737369676E6D656E745F312E73726563C2
S11300000C942A000C9434000C9434000C943400A6
S11300100C9434000C9434000C9434000C9434008C
S11300200C9434000C9434000C9434000C9434007C
S11300300C9434000C9434000C9434000C9434006C
S11300400C9434000C9434000C9434000C9434005C
S11300500C94340011241FBECFE5D8E0DEBFCDBF21
S11300600E9459000C9487000C9400008FEF90E0DC
S11300709BBB8ABB08952BB33CB341E050E002C064
S1130080440F551F8A95E2F7242B352B3CBB2BBB21
S113009008954BB35CB321E030E002C0220F331F5C
S11300A08A95E2F720953095242335233CBB2BBB5E
S11300B008950E9436001CBA1BBAC0E0D0E00DC0FF
S11300C0CE010E943B002FE788E391E0215080405D
S11300D09040E1F700C000002196C830D10584F3B8
S11300E0C0E0D0E010C087E090E08C1B9D0B0E9424
S11300F049002FE788E391E0215080409040E1F7E8
S113010000C000002196C830D1056CF3D6CFF89416
S1050110FFCF1B
S9030000FC
